:100000000C9447020C946F020C946F020C946F02D4
:100010000C946F020C946F020C946F020C941A0EE5
:100020000C946F020C946F020C946F020C946F028C
:100030000C946F020C946F020C946F020C946F027C
:100040000C944C060C946F020C949C0E0C94760E3F
:100050000C946F020C946F020C946F020C946F025C
:100060000C9448090C946F02FFE0FFD1AFFF32FF00
:10007000D0FFFEFFE0FFD1AEFFD0FFFEFFE0FFD1DB
:100080001000FFFEFFD0FFE0FFC1FFD1AED580A87A
:100090001FD300408D142002A1C8DA0281CFD9F10C
:1000A000DB402EA4A6AFFFD0FFFE0000000024001E
:1000B00027002A00000000080002010000030407D6
:1000C000000000000000000001050600FF0500FA26
:1000D00001F120FF0005FF05000200200215258028
:1000E00080800080053242A0A002354540E040E01B
:1000F0004002354560C04060C0023545A0204080C8
:10010000A0024555608070A0600512228080022503
:100110003540808080400225358040404080043357
:1001200043A040A003334340E0400122324080041A
:100130003141E002112180023545202040808002BB
:100140003545E0A0A0A0E0022535C0404040400277
:100150003545E020E080E0023545E020E020E00287
:100160003545A0A0A0E020023545E080E020E00277
:10017000354580E0A0A0E0023545E0202040800227
:100180003545E0A0E0A0E0023545E0A0A0E0200376
:1001900013238000800214248000808002354520D3
:1001A00040804020033343E000E00235458040209A
:1001B0004080023545E0206000400255657088E8C7
:1001C000A860023545E0A0A0E0A0023545E0A0E02F
:1001D000A0E0023545E0808080E0023545C0A0A067
:1001E000A0E0023545E080E080E0023545E080E0B7
:1001F0008080023545E080A0A0E0023545A0A0E067
:10020000A0A002152580808080800235452020A096
:10021000A0E0023545A0A0C0A0A0023545808080A6
:1002200080E0023545A0E0A0A0A0023545E0A0A0F6
:10023000A0A0023545E0A0A0A0E0023545E0A0A0C6
:10024000E080013646E0A0A0A0E040023545E0A0F5
:10025000A0C0A0023545E080E020E0023545E04046
:10026000404040023545A0A0A0A0E0023545A0A036
:10027000A0A0C0023545A0A0A0E0A0023545A0A0E6
:1002800040A0A0023545A0A0404040023545E020F6
:100290004080E0022535C0808080C00235458080E6
:1002A000402020022535C0404040C005324240A0D9
:1002B000023141E0052232804002354540A0A0E0F5
:1002C000A0023545C0A0C0A0C00235456080808036
:1002D00060023545C0A0A0A0C00235456080E08026
:1002E000600235456080E080800235456080A0A0D6
:1002F00060023545A0A0E0A0A00215258080808086
:10030000800235452020A0A040023545A0A0C0A015
:10031000A00235458080808060023545A0E0A0A025
:10032000A0023545C0A0A0A0A002354540A0A0A0D5
:1003300040023545C0A0A0C08001364640A0A0A024
:100340004040023545C0A0A0C0A0023545608040B5
:1003500020C0023545E040404040023545A0A0A005
:10036000A040023545A0A0A0A0C0023545A0A0A095
:10037000E0A0023545A0A040A0A0023545A0A040C5
:100380004040023545E0204080E00235456040C0F5
:1003900040600215258080808080023545C0406025
:1003A00040C0062131C0FFFFFFFFFFFFFFFFFFFF3F
:1003B000FFFFFFFFFFFFFFFFFFFFFFFFFFFFFFFF4D
:1003C000FFFFFFFFFFFFFFFF022535804040404059
:1003D000023545A0A0A06020023545C020C020C045
:1003E000FFFFFF02354580C0A0A040FFFF0235455A
:1003F00040A0A06020FFFFFFFFFFFFFFFFFFFFFF08
:10040000023545E020204080FFFFFF02354540A037
:10041000A0A040FFFFFFFFFFFFFFFFFFFFFFFFFF69
:10042000FFFFFFFFFFFFFFFFFFFFFFFFFFFFFFFFDC
:10043000FFFFFFFFFFFFFFFFFFFFFFFFFFFFFFFFCC
:10044000FFFFFFFFFFFFFFFFFFFFFFFFFFFFFFFFBC
:10045000FFFFFFFFFFFFFFFF0102040810204080A5
:10046000010204081020010204081020000000000E
:10047000250028002B0004040404040404040202E0
:10048000020202020303030303030200CE0E11243F
:100490001FBECFEFD4E0DEBFCDBF11E0A0E0B1E0E2
:1004A000E8E4F4E202C005900D92AA35B107D9F74D
:1004B00023E0AAE5B1E001C01D92A835B207E1F73B
:1004C00012E0C7E4D2E004C02197FE010E94171297
:1004D000C634D107C9F70E947B0F0C9422120C94EA
:1004E000000080E090E0892B29F00E94CF0A811162
:1004F0000C94000008953FB7F8948091CC0190913E
:10050000CD01A091CE01B091CF0126B5A89B05C029
:100510002F3F19F00196A11DB11D3FBFBA2FA92F82
:10052000982F8827820F911DA11DB11DBC01CD01FF
:1005300042E0660F771F881F991F4A95D1F70895EB
:100540000895DC011696ED91FC91179712968C9107
:10055000481B477081E090E001C0880F4A95EAF798
:10056000E60FF11D3081222311F0832B02C080950C
:10057000832380830895FB014181DC0112962C9135
:100580001297421768F013962C911397241740F096
:10059000608115962C91621718F424810C94A102A5
:1005A0000895FC0180819281980F92832181921796
:1005B00060F494819F5F94839381890F821710F078
:1005C0008FEF820F838381E0089580E00895FC011E
:1005D00012828081815083831482089580E008957F
:1005E0000B96FC01849108950A96FC01849108956C
:1005F000FC01849108950E94F802882321F0823042
:1006000011F083E0089586E00895FC01E60FF11DE6
:10061000849190E0982F88273196E4918E0F911D58
:10062000089568E00C94050366E00C9405032EE938
:100630003FE0009729F0F9013197F1F70197F9CFE1
:1006400008951092C6011092C50108958093D701B4
:100650001092B90084FF02C08CE001C088E480934E
:10066000B8000C942103DB011496ED91FC911597D1
:1006700020E030E065E00994DB011496ED91FC91F7
:10068000159720E030E062E00994DB011496ED91CB
:10069000FC91159720E030E063E00994CF92DF925F
:1006A000EF92FF920F931F93CF93DF938C017B0107
:1006B0006A0180E0F601C49181110BC0CF3F09F4BB
:1006C0004CC04C2FB701C8010E943303811143C0B5
:1006D00049C0CF3F11F44FEFF5CFCE3F09F444C0EE
:1006E000C03FC8F5C03E38F04C2F4F70B701C8016D
:1006F0000E943C0330C0C03D38F04C2F4F70B70112
:10070000C8010E94450327C0C03CF8F0D7011496E9
:10071000ED91FC91159720E030E040E064E0C801E5
:100720000995C295C07FCE5FD0E0CE010E9417032D
:10073000D7011496ED91FC91159720E030E041E04F
:1007400064E0C8010995CE0104C0C7FD04C08C2F28
:1007500090E00E94170380E001C081E0BFEFCB1A58
:10076000DB0AA8CF80E001C081E0DF91CF911F912B
:100770000F91FF90EF90DF90CF9008958F929F920E
:10078000AF92BF92CF92DF92FF920F931F93CF93BE
:10079000DF9300D0CDB7DEB76C018B01F42E490199
:1007A00020E1421709F467C0241700F13AE043172B
:1007B00029F18FE0481369C041E0C6010E9445035A
:1007C00040E0B801C6010E943C0341E8B801C601FF
:1007D0000E943303F4014081B801C6010E94330333
:1007E00040E0B801C6010E94450308C1A1E14A17D3
:1007F00009F444C0B5E14B1791F047C0DB011496F2
:10080000ED91FC91159720E030E042E061E0099520
:1008100044E850E0B801C6010E944E0336C0FB0117
:10082000A280B3804CE750E00E944E03D50114969D
:100830004C91406BB801C6010E94330341E0B801FE
:10084000C6010E943C03F50126813781D801149628
:10085000ED91FC911597D50115964C9166E0C60176
:100860000995811102C080E0CAC040E0B801C6010C
:100870000E9445030AC043E750E002C048E650E04A
:10088000B801C6010E944E03B9C0D80112960D915D
:100890001C911397B2E3FB1609F474C0BF15B8F0AE
:1008A000E5E1FE1609F47BC0F7E1FF1609F48DC0FF
:1008B00024E1F212A3C0D8011696ED91FC9117978E
:1008C00015968C919F01280F311DC90160C036E437
:1008D000F31609F48AC087E4F81609F48AC0ABE37A
:1008E000FA128CC0F40181819381913029F0933008
:1008F00031F4482F885004C048E0480F01C0482F09
:1009000021E0D80113963C91381708F420E031E03B
:10091000F8015281451708F430E051E0481708F01B
:1009200050E0822F852B382319F4252309F466C063
:10093000D4011296FC90913051F030F0923049F091
:10094000933051F42FEF09C020E031E007C021E0DF
:1009500004C020E03FEF02C020E030E0F7FE08C016
:10096000B401C8012A8339830E94BB0239812A81DC
:10097000F4018081830F80838181820F8183FF0C4A
:1009800069F73CC0B401C8010E94BB0237C0119294
:10099000E817F907E1F7C8010E94E7022FC0C80174
:1009A0000E94D102882309F45ECFD8011696ED91FA
:1009B000FC91179715968C919F01280F311DC90145
:1009C0001192E817F907E1F719C0D4011C92F80158
:1009D000828111968C9311978581815012968C9308
:1009E0001297838113968C9309C0D80115968C9128
:1009F00003C0D80111968C91F401808381E00F909F
:100A00000F90DF91CF911F910F91FF90DF90CF90CA
:100A1000BF90AF909F908F90089585ED8093BC001C
:100A20008091BC0084FDFCCF1092D20108954091CA
:100A30007C01262F30E0240F311D21323105DCF4FA
:100A40002091D2012430C9F4FC0180E090E08617A7
:100A500058F430917C012191DC01A65ABE4FA30FBE
:100A6000B11D2C930196F3CF80917C01680F6093A8
:100A70007C0180E0089581E0089582E00895089562
:100A800081E090E03091D6012091D501321710F429
:100A900080E090E091958195910908958091D6012B
:100AA0009091D501891730F48F5F8093D60180E053
:100AB00090E008958FEF9FEF08958091D50190E029
:100AC0002091D601821B91090895CF93DF9300D026
:100AD000CDB7DEB7CB01642F49835A830E94170537
:100AE0004981842F5A81952F0F900F90DF91CF91DC
:100AF0000895CF93DF931F92CDB7DEB7698361E08E
:100B0000CE0101960E94170581E090E00F90DF91E1
:100B1000CF91089590E0FC01EC54FF4F3491FC011B
:100B2000E85AFB4F2491FC01EA58FB4FE491EE2375
:100B300009F43BC0332339F1333091F038F43130CC
:100B4000A9F0323001F584B58F7D12C0373091F0B5
:100B50003830A1F03430B9F4809180008F7D03C02B
:100B6000809180008F77809380000DC084B58F774F
:100B700084BD09C08091B0008F7703C08091B00020
:100B80008F7D8093B000F0E0EE0FFF1FE459FB4F24
:100B9000A591B4918FB7F894EC91611103C02095A1
:100BA0002E2301C02E2B2C938FBF0895CF93DF935C
:100BB00090E0FC01E85AFB4F2491FC01EA58FB4FFE
:100BC0008491882361F190E0880F991FFC01E6551C
:100BD000FF4FC591D491FC01E459FB4FA591B4910D
:100BE000611109C09FB7F89488812095822388837A
:100BF000EC912E230BC0623061F49FB7F8943881DA
:100C0000822F809583238883EC912E2B2C939FBF7A
:100C100006C08FB7F894E8812E2B28838FBFDF9111
:100C2000CF9108958F929F92AF92BF92CF92DF9211
:100C3000EF92FF926B017C010E947B024B015C01F1
:100C4000C114D104E104F104F1F00E947B02DC0143
:100C5000CB0188199909AA09BB09883E9340A105CF
:100C6000B10570F321E0C21AD108E108F10888EE5D
:100C7000880E83E0981EA11CB11CC114D104E104AC
:100C8000F10419F7DDCFFF90EF90DF90CF90BF9088
:100C9000AF909F908F9008951F920F920FB60F9272
:100CA00011242F933F938F939F93AF93BF93809182
:100CB000C8019091C901A091CA01B091CB013091B6
:100CC000C70123E0230F2D3720F40196A11DB11D8C
:100CD00005C026E8230F0296A11DB11D2093C70170
:100CE0008093C8019093C901A093CA01B093CB012E
:100CF0008091CC019091CD01A091CE01B091CF0116
:100D00000196A11DB11D8093CC019093CD01A093BC
:100D1000CE01B093CF01BF91AF919F918F913F9141
:100D20002F910F900FBE0F901F901895DB01ED9142
:100D3000FC910994EF92FF920F931F93CF93DF934F
:100D40001F92CDB7DEB78C01DC011296ED90FC90BE
:100D50001397D196ED91FC91D29782E0099520E00E
:100D600030E04AE0B701C8010E949606F82ED8018B
:100D7000D196ED91FC91D29783E00995D801D19657
:100D8000ED91FC91D29780E00995FF20A1F1F80147
:100D9000628173819E012F5F3F4F46E4C8010E942C
:100DA00096068981D8018C9312966D917C91139748
:100DB0009E012F5F3F4F47E4C8010E94960689813C
:100DC000F80181836281738120E030E048E4C8014A
:100DD0000E949606D8011B968C931B9798012D5C58
:100DE0003F4F12966D917C91139747E1C8010E9485
:100DF000960681E001C080E00F90DF91CF911F91B6
:100E00000F91FF90EF9008952F923F924F925F9233
:100E10006F927F928F929F92AF92BF92CF92DF920A
:100E2000EF92FF920F931F93CF93DF931F92CDB753
:100E3000DEB71C01A62EDC01DC96BC90DC97DB96AD
:100E4000EC906C01B4E0CB0ED11CDC015996ED9115
:100E5000FC915A97C6010995F82EF101008511857C
:100E6000C8010E94F802982ED10118968D919C918C
:100E700019970E94FB02682EB1E09B1203C02FE07D
:100E8000922E02C099249A94F101808591850E9446
:100E9000F402882ED10118968D919C9119970E9489
:100EA000F002782EF101808591850E941103F0E611
:100EB000FA1538F4009729F0080F191F91E6892ECA
:100EC00013C0D10118968D919C9119970E9414031B
:100ED000B0E4BA1538F4009729F0080F191F81E41F
:100EE000882E02C00F5E1F4F7A1438F4F101148A65
:100EF000178A108E158A168A9EC07814B8F3262D8C
:100F000030E0F80184918F3F19F40F5F1F4F5AC0F2
:100F10008A104FC0D10118968D919C9119970E940B
:100F2000F80298012F5F3F4FF801882311F08230BB
:100F3000E1F48491D10157968C935797F90124914C
:100F400058962C935897F8013396E4915496EC9365
:100F50005497F8013496E4915596EC935597F8011F
:100F60003596E4915696EC9320C08491982F9F700B
:100F70009250D10156969C93569782958F705596B4
:100F80008C935597F9012491822F8F7058968C93EA
:100F9000589722952F7057962C935797F8013296B1
:100FA000E491E295EF705496EC930115110579F4F4
:100FB00042C0F8013296E491E921C9018E0F911DDA
:100FC000080F191F871409F491CF83949ACFF10168
:100FD000808591850E94FB02D10157963C915797DD
:100FE00058962C91589755965C915597B21A5696EB
:100FF0009C915697B91AFB0C9FEF920F9F0DD896B4
:101000004C91D897DA966C916F1518F0941728F4D4
:1010100002C0941768F09F1558F4E50E9FEF930FE8
:101020009E0DF10147A951AD5E1538F4941738F4BF
:10103000F10184893FC080E03DC0941710F49E15F3
:10104000B8F7080F111D395F532E569456945694D5
:101050004F2C420E4101F0E28F0E911C652C712C39
:10106000F41431F35E2D58018A2D801B8515F0F4A0
:10107000F5018491D10116966D917C911797909608
:101080005C9390979196FC92919793961C9293976C
:1010900092968C9394014BE3C60159830E94960665
:1010A000BFEFAB1ABB0A5981585FDECF060D171D83
:1010B000F394D6CFD101DB962C91DB97082E000C50
:1010C000990B820F911DDB968C9381E090E00F903D
:1010D000DF91CF911F910F91FF90EF90DF90CF9014
:1010E000BF90AF909F908F907F906F905F904F9048
:1010F0003F902F9008959091C601911104C0809364
:10110000C6016093C50108951F93CF93DF9300D06C
:10111000CDB7DEB720ED37E03A8329839091BC004C
:10112000982399F429813A81232B51F48091D70196
:10113000182F127081FD09C081E00E947B0806C053
:1011400029813A8121503109E7CF11E0812F0F9099
:101150000F90DF91CF911F91089584E98093BC0097
:1011600064E080E10C948408CF938093BB0084E812
:101170008093BC0063E080E80E948408C82F882325
:1011800089F08091D701C82FC27081FD0AC080917B
:10119000B900887F883229F063E082E00E947B08F2
:1011A00001C0C1E08C2FCF910895CF93DF93FC0154
:1011B00023A5222379F0EC010E94E30D811102C0E6
:1011C00080E009C08EA1811180E40E94B4088823C8
:1011D000B9F31BA681E0DF91CF9108950F931F9380
:1011E000CF93C42F89016330C1F050F4613081F096
:1011F000623009F048C0FC0146A321E023A743C0A8
:10120000663011F1673079F1653009F03CC00EC0ED
:10121000FC0186A50E94260336C0FC0116A221E02F
:1012200023A7411130C00E94AD082DC00E94D508EF
:10123000811104C00E94AD0880E026C08C2F0E945E
:10124000B408811120C0F6CF0E94D508882391F3FD
:10125000CC23C9F0F80181918F010E94B408882342
:1012600049F3C150F5CF0E94D508882319F3CC2348
:1012700051F0F80184910E94B408882329F00F5F8F
:101280001F4FC150F4CF81E0CF911F910F9108956E
:101290001F920F920FB60F9211242F933F934F93EB
:1012A0005F936F937F938F939F93AF93BF93EF93CE
:1012B000FF938091B900887F803609F49CC068F55F
:1012C000883209F45BC090F4803109F454C038F4DA
:1012D000882309F4F6C0883009F44DC0F6C088317F
:1012E00009F44CC0803209F45DC0EFC0803409F4C9
:1012F00068C048F4803309F455C0883309F0E5C06C
:101300008093A101D8C0803509F44FC0883509F415
:101310005DC0883409F0D9C0D6C0883909F4C7C087
:10132000A8F4883709F467C038F4883609F463C034
:10133000803709F460C0C9C0883809F4B8C0803962
:1013400009F45FC0803809F0C0C05BC0803B09F47D
:1013500086C038F4803A09F466C0883A09F47FC040
:10136000B4C0803C09F4A7C0883C09F4A4C0883B01
:1013700009F48AC0AAC08091C40110C09091C30131
:101380008091C201981770F5E091C30181E08E0F42
:101390008093C301F0E0EE55FE4F80818093BB0047
:1013A00085EC86C08093A1018EC0E091C30181E0ED
:1013B0008E0F8093C3018091BB00F0E0EE55FE4F8D
:1013C00080839091C3018091C2016EC0E091C301FE
:1013D00081E08E0F8093C3018091BB00F0E0EE5559
:1013E000FE4F80838091D10181116DC081E0809397
:1013F000D00184EA61C083E08093D2011092A00101
:10140000CFCF8091A001803208F051C0E091A001BF
:1014100081E08E0F8093A0018091BB00F0E0E05846
:10142000FE4F8083BDCF85EC8093BC001092D2012B
:101430008091A001803230F4E091A001F0E0E0580A
:10144000FE4F10826091A00170E0E0917E01F0916A
:101450007F0180E891E009951092A00136C084E0F8
:101460008093D20110927D0110927C01E0917A016B
:10147000F0917B01099580917C01811105C081E08B
:1014800080937C0110925A01E0917D0181E08E0FE2
:1014900080937D01F0E0E65AFE4F80818093BB008F
:1014A00090917D0180917C01981708F479CF85E8AF
:1014B0008093BC000AC085EC8093BC001092D201DE
:1014C00004C01092A1010E940D05FF91EF91BF9100
:1014D000AF919F918F917F916F915F914F913F91CC
:1014E0002F910F900FBE0F901F901895CF92DF9203
:1014F000EF92FF920F931F93CF93DF936C017A01CA
:101500008B01C0E0D0E0CE15DF0589F0D8016D91E8
:101510008D01D601ED91FC910190F081E02DC60185
:101520000995892B11F47E0102C02196ECCFC701E9
:10153000DF91CF911F910F91FF90EF90DF90CF90AF
:101540000895FC01918D828D981761F0828DDF01E5
:10155000A80FB11D5D968C91928D9F5F9F73928FA6
:1015600090E008958FEF9FEF0895FC01918D828D9B
:10157000981731F0828DE80FF11D858D90E0089568
:101580008FEF9FEF0895FC01918D228D892F90E0C0
:10159000805C9F4F821B91098F739927089581E783
:1015A00092E00E94C30A21E0892B09F420E0822FF7
:1015B0000895FC01848DDF01A80FB11DA35ABF4F10
:1015C0002C91848D90E001968F739927848FA68942
:1015D000B7892C93A089B1898C9180648C93938D69
:1015E000848D981306C00288F389E02D80818F7D59
:1015F00080830895EF92FF920F931F93CF93DF9311
:10160000EC0181E0888F9B8D8C8D981305C0E88953
:10161000F989808185FD24C0F62E0B8D10E00F5FC7
:101620001F4F0F731127E02E8C8DE8120CC00FB6E0
:1016300007FCFACFE889F989808185FFF5CFCE01D3
:101640000E94D90AF1CF8B8DFE01E80FF11DE35AFC
:10165000FF4FF0820B8FEA89FB898081806207C08F
:10166000EE89FF896083E889F989808180648083BD
:1016700081E090E0DF91CF911F910F91FF90EF906B
:101680000895CF93DF93EC01888D8823C9F0EA8910
:10169000FB89808185FD05C0A889B9898C9186FD6B
:1016A0000FC00FB607FCF5CF808185FFF2CFA88968
:1016B000B9898C9185FFEDCFCE010E94D90AE7CF81
:1016C000DF91CF9108950F931F93CF93DF938C01F8
:1016D000CAE1D3E0EDA9FEA982E00995EDA9FEA932
:1016E00081E0099520E030E044E1B8018EE193E02B
:1016F0000E94960621E533E047E1B8018EE193E0D0
:101700000E949606EDA9FEA980E0DF91CF911F917E
:101710000F910994CF93DF93009779F0FC0101902A
:101720000020E9F73197AF01481B590BBC018AE152
:1017300093E00E94760AEC0102C0C0E0D0E042E0F3
:1017400050E06FE371E08AE193E00E94760A8C0F2B
:101750009D1FDF91CF9108958F929F92AF92BF927C
:10176000CF92DF92EF92FF92CF9320910801223027
:1017700021F02F3F09F0F0C104C0EAE8F4E0C49181
:1017800072C022E020930801EAE8F4E0C491CF3F60
:1017900009F4E2C1C13009F1C23009F441C0C111FC
:1017A00062C014BC15BC24B5226024BD25B52160DF
:1017B00025BDE8E7F4E0E491F0E0EE0FFF1FE45907
:1017C000FB4F259134913093640220936302EAE544
:1017D000F4E0E491E093620248C01092800010921D
:1017E0008100209181002860209381002091810058
:1017F000216020938100E8E7F4E0E491F0E0EE0F4F
:10180000FF1FE459FB4F25913491309361022093DF
:101810006002EAE5F4E0E491E0935F02C1E025C0F4
:101820001092B0001092B1002091B000226020937D
:10183000B0002091B10021602093B100E8E7F4E00E
:10184000E491F0E0EE0FFF1FE459FB4F2591349136
:1018500030935E0220935D02EAE5F4E0E491E093C8
:101860005C02C2E002C0C7FD77C14C0161E082E0CA
:101870000E94D605A12CB12C8C2F8D7F09F0A9C018
:1018800060E072E18AE790E0A50194010E94D61120
:1018900069017A01BA01A90141505109610971092F
:1018A0004F3F51056105710509F008F445C060E43A
:1018B00072E48FE090E0A50194010E94D611BA0174
:1018C000A9014150510961097109C230E9F44F3F42
:1018D00051056105710509F008F43CC160E970ED3E
:1018E00083E090E0A50194010E94D611BA01A901FC
:1018F00041505109610971094F3F51056105710559
:1019000009F0A8F583E05EC04F3F51056105710500
:10191000A9F0A0F068E478EE81E090E0A5019401E0
:101920000E94D611BA01A9014150510961097109FA
:10193000CC2309F4BEC006C181E001C082E0CC2303
:1019400089F040C0D701C6012AE0B595A7959795C3
:1019500087952A95D1F7AC01BD0141505109610924
:10196000710985E095B5987F892B85BD66C068E4CF
:1019700078EE81E090E0A50194010E94D611BA01B1
:10198000A90141505109610971094F3F5105610594
:10199000710509F008F48BC064E274EF80E090E018
:1019A000A50194010E94D611BA01A9014150510923
:1019B000610971094F3F51056105710511F008F08A
:1019C00097C085E09091B100987F892B8093B100FA
:1019D0002EC060E072E18AE790E0A50194010E94C8
:1019E000D611BA01A9014150510961097109411586
:1019F000510581E06807710580F068E478EE81E0C8
:101A000090E0A50194010E94D611BA01A9014150AC
:101A100051096109710993E001C091E0C13039F4C5
:101A200080918100887F892B8093810018C0C1300C
:101A3000B1F0C23049F1C1118FC047BD8FEF9FEFA8
:101A4000DC0180936D0290936E02A0936F02B093BD
:101A5000700280916E00826080936E007DC0509312
:101A60008900409388008FEF9FEFDC01809369022B
:101A700090936A02A0936B02B0936C0280916F0006
:101A8000826080936F0068C04093B3008FEF9FEF38
:101A9000DC018093650290936602A0936702B09385
:101AA00068028091700082608093700055C084E06D
:101AB00089CF4F3F510561057105C1F0B8F062E172
:101AC0007AE780E090E0A50194010E94D611BA0166
:101AD000A90141505109610971094F3F5105610543
:101AE000710511F008F02ECF84E03CCF83E03ACFAF
:101AF00062E17AE780E090E0A50194010E94D611AE
:101B0000BA01A90141505109610971094F3F5105BD
:101B100061057105A9F0A0F0D701C6013AE0B595BD
:101B2000A795979587953A95D1F7AC01BD0141509E
:101B3000510961097109CC2309F413CF87E042CF21
:101B400086E0FDCE4F3F51056105710509F080F635
:101B500084E0F5CE82E036CFCF91FF90EF90DF901A
:101B6000CF90BF90AF909F908F9008959091080173
:101B7000981324C0EAE8F4E0E4919FEF9093080101
:101B8000E130B9F098F0E230C9F4909170009D7F97
:101B90009093700091E09093B0009091B100987F85
:101BA00094609093B1001092B30008C010926E0040
:101BB00005C090916F009D7F90936F0060E00C9442
:101BC0008A050E941D12CF9384EA8093BC0061E0D5
:101BD00080E80E948408882359F08091B900887FAA
:101BE000883041F0803131F061E082E00E947B0872
:101BF000C0E01DC088E78093BB0084E88093BC00F0
:101C000062E080E80E948408882391F38091D701E4
:101C1000C82FC27081FD0AC08091B900887F8831C9
:101C200029F062E082E00E947B0801C0C1E08C2FB5
:101C3000CF9108951F920F920FB60F9211242F93F8
:101C40003F934F935F936F937F938F939F93AF9344
:101C5000BF93EF93FF938091650290916602A091EC
:101C60006702B0916802892B8A2B8B2B51F18091EE
:101C70005C02E0915D02F0915E0290818927808391
:101C80008091650290916602A0916702B09168020E
:101C9000181619061A061B06C4F480916502909165
:101CA0006602A0916702B09168020197A109B1098B
:101CB0008093650290936602A0936702B0936802D6
:101CC00004C0809108010E94B60DFF91EF91BF9171
:101CD000AF919F918F917F916F915F914F913F91C4
:101CE0002F910F900FBE0F901F9018951F920F927B
:101CF0000FB60F9211242F933F934F935F936F93DF
:101D00007F938F939F93AF93BF93EF93FF9381E75D
:101D100092E00E94D90AFF91EF91BF91AF919F91FC
:101D20008F917F916F915F914F913F912F910F9084
:101D30000FBE0F901F9018951F920F920FB60F9223
:101D400011242F938F939F93EF93FF93E091810240
:101D5000F09182028081E0918702F091880282FDF9
:101D600012C0908180918A028F5F8F7320918B02C5
:101D7000821751F0E0918A02F0E0EF58FD4F958F05
:101D800080938A0201C08081FF91EF919F918F9192
:101D90002F910F900FBE0F901F9018951092740204
:101DA0001092730288EE93E0A0E0B0E08093750299
:101DB00090937602A0937702B093780223E131E00A
:101DC000309372022093710225EC30E030937E0252
:101DD00020937D0224EC30E03093800220937F0238
:101DE00020EC30E0309382022093810221EC30E03D
:101DF000309384022093830222EC30E030938602F9
:101E00002093850226EC30E03093880220938702ED
:101E100010928A0210928B0210928C0210928D0204
:101E200010921103109210038093120390931303E6
:101E3000A0931403B093150383E291E090930F03F2
:101E400080930E0310921D0310921C0383E391E014
:101E500090931B0380931A0310925503109256031C
:101E6000109257031092230310922203109225031D
:101E7000109224031092270381E08093260382E2CC
:101E80008093280310922D0310922C03E1E4F3E0D9
:101E90009FEF8EE08E0F91938E13FDCF81E08093A4
:101EA0003E032EEE32E030933403209333038093CD
:101EB0003503109236031092370380E48093380381
:101EC0001092390380EA92E09093500380934F037D
:101ED00089E091E0909321038093200310924C03BA
:101EE0008EE193E00E949A068BE391E090931B03AE
:101EF00080931A030895789484B5826084BD84B574
:101F0000816084BD85B5826085BD85B5816085BDF4
:101F100080916E00816080936E00109281008091AC
:101F20008100826080938100809181008160809334
:101F30008100809180008160809380008091B10059
:101F400084608093B1008091B00081608093B00084
:101F500080917A00846080937A0080917A00826018
:101F600080937A0080917A00816080937A008091DA
:101F70007A00806880937A001092C1001092D60196
:101F80001092D5011092D4011092D3011092D20177
:101F9000C1E0C093D1011092D00161E082E10E94C2
:101FA0008A0561E083E10E948A058091B9008E7FF5
:101FB0008093B9008091B9008D7F8093B90088E447
:101FC0008093B80085E48093BC0080915703811111
:101FD00006C0C09357038EE193E00E949A06809159
:101FE0002003909121030E94630B80912203909122
:101FF0002303885C904009F445C088EC90E09093FE
:1020000023038093220380913503811108C0EDECF6
:10201000F0E0E491E0933603E4EDF0E011C08130AC
:1020200041F4E7EDF0E0E491E0933603E8EDF0E011
:1020300007C0E5EDF0E0E491E0933603E6EDF0E073
:10204000E491E093370380913603082E000C990B3E
:1020500020913703821B910927FD93952091380326
:10206000203441F0829FC001112426E09695879587
:102070002A95E1F7809339038EEE92E09093340332
:1020800080933303109255038AE08093560382E4D1
:1020900091E00E948A0B80917A00887F80937A0079
:1020A00080917A00846080937A0068EE73E080E02B
:1020B00090E00E941206E0918102F091820282E09B
:1020C0008083E0917D02F0917E021082E0917F0298
:1020D000F091800280E1808310928902E091850274
:1020E000F091860286E08083E0918302F091840281
:1020F000808180618083E0918302F09184028081FD
:1021000088608083E0918302F091840280818068FE
:102110008083E0918302F091840280818F7D8083AF
:102120008BE092E00E94AC0B60E670E080E090E013
:102130000E94120682E00E94B60D68E170E080E025
:1021400090E00E9412068BE492E00E94AC0B60E6E5
:1021500070E080E090E00E94120682E00E94B60DDE
:1021600068E170E080E090E00E9412068AEB92E065
:102170000E94AC0B68E770E080E090E00E941206DD
:1021800082E00E94B60D60ED77E080E090E00E9472
:10219000120662E08EE00E94D60561E083E00E94B4
:1021A000D60561E087E00E94D60561E086E00E94E6
:1021B000D60561E088E00E94D60560E083E00E94D9
:1021C0008A0560E087E00E948A0560E086E00E9460
:1021D0008A0560E088E00E948A0561E085E00E944F
:1021E000D60561E085E00E948A0561E08FE00E94EB
:1021F000D60561E080E10E94D60561E081E10E94A0
:10220000D60561E089E00E94D60561E08AE00E947F
:10221000D60561E08BE00E94D60560E08FE00E9469
:102220008A0560E080E10E948A0560E081E10E9409
:102230008A0501E0CEE114E680915703811106C0C2
:10224000009357038EE193E00E949A068091200349
:10225000909121030E94630B809158029091590242
:10226000A0915A02B0915B02D0E00B97A105B10595
:10227000B0F1C0935503D09356038AE491E00E94D5
:102280008A0BDF5FD032A9F7D0E010935503D093CB
:1022900056038AE491E00E948A0BDF5FD032A9F7EF
:1022A000C0935503C093560381E591E00E948A0BC9
:1022B00010935503C093560381E591E00E948A0B69
:1022C00068EE73E080E090E00E94120610925802DF
:1022D0001092590210925A0210925B0230C0C093C1
:1022E0005503D093560387E591E00E948A0BDB5F8C
:1022F000D332A9F7D0E010935503D093560387E566
:1023000091E00E948A0BDF5FD032A9F764E670E0AB
:1023100080E090E00E94120680915802909159024C
:10232000A0915A02B0915B020196A11DB11D80934C
:10233000580290935902A0935A02B0935B02E09125
:102340002C03F0912D03309719F08EE193E009955D
:10235000E0902003F0902103E0914F03F0915003AF
:1023600082E00995E0914F03F091500381E00995D7
:1023700020E030E045E1B7018EE193E00E9496064F
:10238000D82F882341F021E533E047E1B7018EE102
:1023900093E00E949606E0914F03F091500380E095
:1023A0000995D11159CF0E94710246CF052E97FB96
:1023B0001EF400940E94ED1157FD07D00E94F51104
:1023C00007FC03D04EF40C94ED11509540953095D8
:1023D00021953F4F4F4F5F4F089590958095709591
:1023E00061957F4F8F4F9F4F0895A1E21A2EAA1B30
:1023F000BB1BFD010DC0AA1FBB1FEE1FFF1FA217B5
:10240000B307E407F50720F0A21BB30BE40BF50BB1
:10241000661F771F881F991F1A9469F7609570953A
:10242000809590959B01AC01BD01CF010895EE0F01
:10243000FF1F0590F491E02D099481E090E0F8945D
:082440000C942212F894FFCF66
:10244800082000000080D801FFBE030001EE08004C
:10245800000000FA0A760AC30AA10AB50A410B006D
:10246800000000790565055D054E0540053F05003E
:102478000000000407760A000000000407760A0D31
:102488000A005A554D49203A2900202020202020B2
:0A249800005F5F5F5F5F002A2A000B
:103800000C94341C0C94511C0C94511C0C94511CA1
:103810000C94511C0C94511C0C94511C0C94511C74
:103820000C94511C0C94511C0C94511C0C94511C64
:103830000C94511C0C94511C0C94511C0C94511C54
:103840000C94511C0C94511C0C94511C0C94511C44
:103850000C94511C0C94511C0C94511C0C94511C34
:103860000C94511C0C94511C11241FBECFEFD4E0BA
:10387000DEBFCDBF11E0A0E0B1E0E4EAFFE302C0AB
:1038800005900D92A230B107D9F712E0A2E0B1E0A5
:1038900001C01D92AD30B107E1F70E94361D0C94B6
:1038A000D01F0C94001C982F9595959595959595FE
:1038B000905D8F708A307CF0282F295A8091C0004B
:1038C00085FFFCCF9093C6008091C00085FFFCCFA0
:1038D0002093C6000895282F205DF0CF982F809167
:1038E000C00085FFFCCF9093C6000895EF92FF9231
:1038F0000F931F93EE24FF2487018091C00087FD62
:1039000017C00894E11CF11C011D111D81E4E8168B
:1039100082E4F8068FE0080780E0180770F3E09172
:103920000401F091050109958091C00087FFE9CF5E
:103930008091C6001F910F91FF90EF9008950E9413
:10394000761C982F8091C00085FFFCCF9093C60015
:1039500091362CF490330CF09053892F089597559D
:10396000892F08951F930E949F1C182F0E949F1C4F
:103970001295107F810F1F910895882351F0982F81
:1039800091508091C00087FFFCCF8091C6009923A1
:10399000B9F708951F93182F0E94761C803249F0C2
:1039A000809103018F5F809303018530C1F01F91E7
:1039B00008958091C00085FFFCCF84E18093C6000C
:1039C0008091C00085FFFCCF1093C6008091C0009D
:1039D00085FFFCCF80E18093C6001F910895E091A0
:1039E0000401F091050109951F9108950E94761C2C
:1039F000803241F0809103018F5F80930301853015
:103A000081F008958091C00085FFFCCF84E1809310
:103A1000C6008091C00085FFFCCF80E18093C60086
:103A20000895E0910401F09105010995089510921F
:103A30000A028823D1F090E040E951E02D9A28EE67
:103A400033E0FA013197F1F721503040D1F72D984A
:103A500028EE33E0FA013197F1F721503040D1F7E9
:103A60009F5F981758F380930A0208953F924F92F0
:103A70005F926F927F928F929F92AF92BF92CF92FE
:103A8000DF92EF92FF920F931F93CF93DF9300008B
:103A900083E38093C4001092C50088E18093C10045
:103AA00086E08093C2005098589A259A81E00E943F
:103AB000171D44E1F42E3EE1E32E24E9D22E96E0D8
:103AC000C92E80E1B82EAA24A39401E4902E16E515
:103AD000812EB2E57B2EA0E26A2EF9E45F2EE3E5AB
:103AE0004E2E70E5372E0E94761C8033B1F1813363
:103AF00009F441C0803409F479C0813409F48CC0E0
:103B0000823471F1853409F47BC0803531F182351E
:103B100021F1813511F1853509F48DC0863509F41F
:103B20009DC0843609F4AEC0843709F41BC18537C3
:103B300009F485C1863709F47AC0809103018F5F4B
:103B400080930301853079F6E0910401F09105013D
:103B500009950E94761C803351F60E94F61CC3CF53
:103B600093E18091C00087FFFCCF8091C60099232C
:103B7000A1F39150F6CF0E94761C8032F1F680912D
:103B8000C00085FFFCCFF092C6008091C00085FF89
:103B9000FCCF9092C6008091C00085FFFCCF809240
:103BA000C6008091C00085FFFCCF7092C600809156
:103BB000C00085FFFCCF6092C6008091C00085FFE9
:103BC000FCCF5092C6008091C00085FFFCCF409290
:103BD000C6008091C00085FFFCCF3092C600809166
:103BE000C00085FFFCCFB092C6007DCF0E94761C3E
:103BF000863808F4B2CF0E94761C0E94F61C73CF60
:103C000094E08091C00087FFFCCF8091C60099238B
:103C100009F4A3CF9150F5CF0E94761C8038D1F0E3
:103C2000813861F1823809F499C0883979F080E0EF
:103C30000E94CA1C58CF0E94761C809306010E94E5
:103C4000761C809307010E94F61C4DCF83E00E94F2
:103C5000CA1C49CF82E00E94CA1C45CF0E94761C34
:103C6000803309F486C192E08091C00087FFFCCFC9
:103C70008091C6009923D9F29150F6CF81E00E943D
:103C8000CA1C31CF0E94761C809309020E94761CC8
:103C90008093080280910C028E7F80930C020E9418
:103CA000761C853429F480910C02816080930C028B
:103CB0008091080290910902892B89F000E010E0C0
:103CC0000E94761CF801E85FFE4F80830F5F1F4F54
:103CD00080910802909109020817190788F30E9441
:103CE000761C803209F029CF80910C0280FFD1C070
:103CF0004091060150910701440F551F5093070151
:103D000040930601A0910802B09109021097C9F0F2
:103D1000E8E0F1E09A01BD016E0F7F1FF999FECF37
:103D200032BD21BD819180BDFA9AF99A2F5F3F4F34
:103D3000E617F70799F74A0F5B1F50930701409367
:103D400006018091C00085FFFCCFF092C6008091F3
:103D5000C00085FFFCCFB092C600C5CE80E10E94B6
:103D6000CA1CC1CE0E94761C809309020E94761C58
:103D7000809308028091060190910701880F991F96
:103D800090930701809306010E94761C853409F404
:103D90007AC080910C028E7F80930C020E94761C68
:103DA000803209F0A0CE8091C00085FFFCCFF09258
:103DB000C600A0910802B09109021097B9F1809154
:103DC0000C02182F1170082F0270E0910601F0917B
:103DD00007019F012F5F3F4FB90140E050E01123E1
:103DE000B1F4002339F494918091C00085FFFCCF99
:103DF0009093C6004F5F5F4FCB010196F9014A17C0
:103E00005B0780F4BC012F5F3F4F112351F3F999F9
:103E1000FECFF2BDE1BDF89A90B58091C00085FF5C
:103E2000FCCFE6CF70930701609306018091C0003C
:103E300085FDD9CE8091C00085FFF8CFD4CE0E94F9
:103E4000761C803209F079CE8091C00085FFFCCFCE
:103E5000F092C6008091C00085FFFCCFE092C600C2
:103E60008091C00085FFFCCFD092C6008091C00039
:103E700085FFFCCFC092C6008091C00085FFFCCFBB
:103E8000B092C60030CE80910C02816080930C020B
:103E900085CF809107018823880F880B8A21809322
:103EA0000B028091060190910701880F991F909352
:103EB0000701809306018091080280FF09C080916C
:103EC00008029091090201969093090280930802DA
:103ED000F894F999FECF1127E0910601F0910701BE
:103EE000C8E0D1E08091080290910902103091F46D
:103EF0000091570001700130D9F303E0009357009F
:103F0000E8950091570001700130D9F301E1009369
:103F10005700E89509901990009157000170013001
:103F2000D9F301E000935700E8951395103498F009
:103F300011270091570001700130D9F305E000937B
:103F40005700E8950091570001700130D9F301E165
:103F500000935700E8953296029709F0C7CF1030CA
:103F600011F00296E5CF11248091C00085FFE9CEC3
:103F7000ECCE0E94761C0E94761C182F0E94761CA4
:103F8000112351F0113021F086E00E94CA1CABCD04
:103F900084E90E94CA1CA7CD8EE10E94CA1CA3CD51
:043FA000F894FFCFC3
:023FA40080009B
:0400000300003800C1
:00000001FF
